:040000004DEF3CF094
:10789600C2821200000EF86E0001E3EF3DF0C2A2B4
:1078A60002D0010E1200000E1200C450036EC35027
:1078B600016E03C002F01200026EC2CF01F0C30EC9
:1078C6000116D89002303C0B0110C26E1200050E54
:1078D600B46E0F0E926E000E946E040E016EF90ECB
:1078E600026ED50E02EC3DF01200000E0C6E0AAED2
:1078F60006D0096C0A1ED8B00A2A010E0C6E09C001
:1079060001F00AC002F0036A8E0E046E0CC005F088
:1079160039EC3EF001C009F002C00AF003C00BF0DA
:107926001200000E066E000E076E000E086E000EA8
:10793600096E0ED0070E056E7D0EE82EFED7052EBB
:10794600FCD700F0010E0626000E072208220922A7
:107956000150065C02500758035008580450095855
:10796600D8B01200E7D7066E000E086E070E076E37
:107976000650D8A405D0000E056E000E046E07D082
:1079860006C003F0010E03160350046E056A02508A
:107996000724D96EDA6A04C0DFFFD89006320706DC
:1079A600D8A0080608BE1200E3D7390E026E38507A
:1079B60069EC3DF0B6EC3CF0000E416E4150390FDB
:1079C600D96EDA6ADF50010B35C0D9FF36C0DAFF4F
:1079D600DF6E35C0D9FF36C0DAFF3750DF124150AF
:1079E600390FD96EDA6ADF50010B35C0D9FF36C0C0
:1079F600DAFFDF6E412A070E4164E0D71200056EFA
:107A0600000EC26E000EC06ED89001303C0BC26EE6
:107A160001C003F0033AF00E0316300E03160250AF
:107A26000F0B0310C16E05C003F0D8900336D89033
:107A36000336380E031605C004F0043A0F0E04167A
:107A4600070E04160550800B04100310C06E01AE1D
:107A560003D09E9C9D8CF28CC2801200000E306E6C
:107A66002CAE06D02B6C2C1ED8B02C2A010E306EF4
:107A76002EAE04D02D6C2E1ED8B02E2A2D502E10D0
:107A8600D8B418D0010E2F6E04D0D8902D362E36CD
:107A96002F2A2EAEFAD72D502B5C2E502C58D8A05C
:107AA60004D02D502B5E2E502C5AD8902E322D32CB
:107AB6002F2EF1D73050D8B404D02B6C2C1ED8B052
:107AC6002C2A2BC02BF02CC02CF01200016E16D0E5
:107AD6003F0E1200060E12005B0E12004F0E120031
:107AE600660E12006D0E12007C0E1200070E1200BA
:107AF6007F0E12006F0E1200790E12000150000A5E
:107B0600D8B4E6D7010AD8B4E5D7030AD8B4E4D77F
:107B1600010AD8B4E3D7070AD8B4E2D7010AD8B421
:107B2600E1D7030AD8B4E0D7010AD8B4DFD70F0AE1
:107B3600D8B4DED7010AD8B4DDD7DED7000E306E52
:107B46002EAE06D02D6C2E1ED8B02E2A010E306E0B
:107B56002CAE06D02B6C2C1ED8B02C2A010E301A57
:107B6600000E326E000E316E2D502E10D8B41CD081
:107B7600010E2F6E04D0D8902D362E362F2A2EAE1B
:107B8600FAD7D890313632362D502B5C2E502C58E1
:107B9600D8A005D02D502B5E2E502C5A3180D8906F
:107BA6002E322D322F2EEDD73050D8B404D0316C72
:107BB600321ED8B0322A31C02BF032C02CF012005F
:107BC6006AEC3CF0020E336E970E73EC3FF0800ABF
:107BD6001C0FD8B01DD08B0E356E0F0E366E040EF0
:107BE600376E010E336E970E73EC3FF0386ED8EC9D
:107BF6003CF08B0E356E0F0E366E020E376E000E93
:107C0600336E970E73EC3FF0386ED8EC3CF022D012
:107C16008B0E356E0F0E366E040E376E090E386EED
:107C2600D8EC3CF08B0E356E0F0E366E020E376EAC
:107C3600090E386ED8EC3CF0640E016E000E026E32
:107C4600000E036E000E046E94EC3CF082B802D077
:107C5600828801D08298640E016E000E026E000EBC
:107C6600036E000E046E94EC3CF0ACD70450D8B40E
:107C760005D0015002100310D8A40CD0000E016EDE
:107C8600000E026E000E036E1200042AD890033214
:107C960002320132000E0114066E000E0214076E47
:107CA600FE0E0314086E065007100810D8B40CD048
:107CB600ECD7042A010E0126000E0222000E032232
:107CC600D890033202320132000E0114066E000E05
:107CD6000214076EFF0E0314086E065007100810F4
:107CE600D8B406D0E6D70406D89001360236033655
:107CF60002BE03D0020E0460F6D704A0029ED890FE
:107D06000432045003120550D8A4038E01C001F0BA
:107D160002C002F003C003F012001EC020F0216A68
:107D2600226A1D34203601E3218020502A6E2A5013
:107D3600D8A409D0000E1C6E000E1D6E000E1E6E1D
:107D4600000E1F6E1200170E206E1CC021F01DC003
:107D560022F01EC023F02028246E04D0D8902332AF
:107D660022322132242EFAD72150256E1D8EFF0E87
:107D76001C16FF0E1D16000E1E161C50266E1D50DC
:107D8600276E1E50286E296A8E0E2A5E2AAE0DD0E8
:107D96002A50800A8F0FD8A0CDD7D8902932283202
:107DA600273226322A3EF9D70DD0170E2A6407D07D
:107DB600C1D7D89026362736283629362A062A509D
:107DC600D8A4F7D72550D8B408D0291E281E271EB8
:107DD600266C000E27222822292226C01CF027C046
:107DE6001DF028C01EF029C01FF012000FC013F0AE
:107DF600146A156A0E34133601E314801350166E96
:107E06001650D8A407D0000E0D6E000E0E6E000E92
:107E16000F6E120012C013F0146A156A113413366D
:107E260001E3148013501B6E1B50D8A407D0000E1C
:107E36000D6E000E0E6E000E0F6E12001B507B0FA5
:107E460016260FC01BF012501B1A800E1B160E8E24
:107E5600118EFF0E1016FF0E1116000E1216000ED2
:107E6600176E000E186E000E196E070E1A6E0DA014
:107E760006D0105017261150182212501922D890E9
:107E86000F320E320D32D8901036113612361A2EA7
:107E9600EED7090E1A6E0DA006D0105017261150F7
:107EA600182212501922D8900F320E320D32D89065
:107EB6001932183217321A2EEED717C001F018C031
:107EC60002F019C003F016C004F01BC005F039EC2F
:107ED6003EF001C00DF002C00EF003C00FF012001C
:107EE600346E34505FEC3CF04BEC3CF052EC3CF022
:107EF6000009D8B477D0FAD7E10E106EFA0E116EDB
:107F06003E0E126E58EC3CF001C009F002C00AF0B9
:107F160078EC3CF009C00DF00AC00EF00BC00FF073
:107F2600F9EC3EF00DC01CF00EC01DF00FC01EF0A7
:107F360090EC3EF01CC02BF01DC02CF0000E2E6EF7
:107F46000A0E2D6EA1EC3DF02B501200E10E106EC4
:107F5600FA0E116E3E0E126E58EC3CF001C009F09E
:107F660002C00AF078EC3CF009C00DF00AC00EF031
:107F76000BC00FF0F9EC3EF00DC01CF00EC01DF06A
:107F86000FC01EF090EC3EF01CC02BF01DC02CF074
:107F9600000E2E6E0A0E2D6E31EC3DF02B501200A7
:107FA600E10E106EFA0E116E3E0E126E58EC3CF09B
:107FB60001C009F002C00AF078EC3CF009C00DF0EF
:107FC6000AC00EF00BC00FF0F9EC3EF00DC01CF02D
:107FD6000EC01DF00FC01EF090EC3EF01C501200BB
:107FE600FF0E12003350000AD8B4B0D7010AD8B435
:0A7FF60083D7030AD8B4D4D7F3D719
:020000040030CA
:0E000000000C091EFF8180FF0FC00FE00F40B3
:00000001FF
